{"abi":[{"type":"function","name":"DEFAULT_ADMIN_ROLE","inputs":[],"outputs":[{"name":"","type":"bytes32","internalType":"bytes32"}],"stateMutability":"view"},{"type":"function","name":"DISTRIBUTOR","inputs":[],"outputs":[{"name":"","type":"bytes32","internalType":"bytes32"}],"stateMutability":"view"},{"type":"function","name":"MANUFACTURER","inputs":[],"outputs":[{"name":"","type":"bytes32","internalType":"bytes32"}],"stateMutability":"view"},{"type":"function","name":"PHARMACY","inputs":[],"outputs":[{"name":"","type":"bytes32","internalType":"bytes32"}],"stateMutability":"view"},{"type":"function","name":"REGULATOR","inputs":[],"outputs":[{"name":"","type":"bytes32","internalType":"bytes32"}],"stateMutability":"view"},{"type":"function","name":"WHOLESALER","inputs":[],"outputs":[{"name":"","type":"bytes32","internalType":"bytes32"}],"stateMutability":"view"},{"type":"function","name":"approveStakeholder","inputs":[{"name":"user","type":"address","internalType":"address"}],"outputs":[],"stateMutability":"nonpayable"},{"type":"function","name":"getRoleAdmin","inputs":[{"name":"role","type":"bytes32","internalType":"bytes32"}],"outputs":[{"name":"","type":"bytes32","internalType":"bytes32"}],"stateMutability":"view"},{"type":"function","name":"grantRole","inputs":[{"name":"role","type":"bytes32","internalType":"bytes32"},{"name":"account","type":"address","internalType":"address"}],"outputs":[],"stateMutability":"nonpayable"},{"type":"function","name":"hasRole","inputs":[{"name":"role","type":"bytes32","internalType":"bytes32"},{"name":"account","type":"address","internalType":"address"}],"outputs":[{"name":"","type":"bool","internalType":"bool"}],"stateMutability":"view"},{"type":"function","name":"registerStakeholder","inputs":[{"name":"details","type":"bytes32","internalType":"bytes32"},{"name":"license","type":"bytes32","internalType":"bytes32"},{"name":"role","type":"bytes32","internalType":"bytes32"}],"outputs":[],"stateMutability":"nonpayable"},{"type":"function","name":"renounceRole","inputs":[{"name":"role","type":"bytes32","internalType":"bytes32"},{"name":"callerConfirmation","type":"address","internalType":"address"}],"outputs":[],"stateMutability":"nonpayable"},{"type":"function","name":"revokeRole","inputs":[{"name":"role","type":"bytes32","internalType":"bytes32"},{"name":"account","type":"address","internalType":"address"}],"outputs":[],"stateMutability":"nonpayable"},{"type":"function","name":"supportsInterface","inputs":[{"name":"interfaceId","type":"bytes4","internalType":"bytes4"}],"outputs":[{"name":"","type":"bool","internalType":"bool"}],"stateMutability":"view"},{"type":"event","name":"RoleAdminChanged","inputs":[{"name":"role","type":"bytes32","indexed":true,"internalType":"bytes32"},{"name":"previousAdminRole","type":"bytes32","indexed":true,"internalType":"bytes32"},{"name":"newAdminRole","type":"bytes32","indexed":true,"internalType":"bytes32"}],"anonymous":false},{"type":"event","name":"RoleGranted","inputs":[{"name":"role","type":"bytes32","indexed":true,"internalType":"bytes32"},{"name":"account","type":"address","indexed":true,"internalType":"address"},{"name":"sender","type":"address","indexed":true,"internalType":"address"}],"anonymous":false},{"type":"event","name":"RoleRevoked","inputs":[{"name":"role","type":"bytes32","indexed":true,"internalType":"bytes32"},{"name":"account","type":"address","indexed":true,"internalType":"address"},{"name":"sender","type":"address","indexed":true,"internalType":"address"}],"anonymous":false},{"type":"event","name":"StakeholderApproved","inputs":[{"name":"user","type":"address","indexed":false,"internalType":"address"}],"anonymous":false},{"type":"event","name":"StakeholderQueued","inputs":[{"name":"user","type":"address","indexed":false,"internalType":"address"}],"anonymous":false},{"type":"error","name":"AccessControlBadConfirmation","inputs":[]},{"type":"error","name":"AccessControlUnauthorizedAccount","inputs":[{"name":"account","type":"address","internalType":"address"},{"name":"neededRole","type":"bytes32","internalType":"bytes32"}]},{"type":"error","name":"AlreadyRegistered","inputs":[]}],"bytecode":{"object":"0x608060405234801561000f575f5ffd5b506100225f5f1b3361005960201b60201c565b506100537f3c801090d1d22d8d8fe9837ef6d8ab50dfdff14e17d0039e333d4d7138ed50b33361005960201b60201c565b506101ba565b5f61006a838361014f60201b60201c565b61014557600160055f8581526020019081526020015f205f015f8473ffffffffffffffffffffffffffffffffffffffff1673ffffffffffffffffffffffffffffffffffffffff1681526020019081526020015f205f6101000a81548160ff0219169083151502179055506100e26101b360201b60201c565b73ffffffffffffffffffffffffffffffffffffffff168273ffffffffffffffffffffffffffffffffffffffff16847f2f8788117e7eff1d82e926ec794901d17c78024a50270940304540a733656f0d60405160405180910390a460019050610149565b5f90505b92915050565b5f60055f8481526020019081526020015f205f015f8373ffffffffffffffffffffffffffffffffffffffff1673ffffffffffffffffffffffffffffffffffffffff1681526020019081526020015f205f9054906101000a900460ff16905092915050565b5f33905090565b610cb6806101c75f395ff3fe608060405234801561000f575f5ffd5b50600436106100e8575f3560e01c80637796f5c91161008a57806391d148541161006457806391d14854146102345780639c26149f14610264578063a217fddf14610282578063d547741f146102a0576100e8565b80637796f5c9146101dc5780637e74d1c0146101fa5780638dc436b614610216576100e8565b806336568abe116100c657806336568abe1461016857806349ec99ee146101845780636f8bac90146101a257806374b7b639146101be576100e8565b806301ffc9a7146100ec578063248a9ca31461011c5780632f2ff15d1461014c575b5f5ffd5b61010660048036038101906101019190610a3a565b6102bc565b6040516101139190610a7f565b60405180910390f35b61013660048036038101906101319190610acb565b610335565b6040516101439190610b05565b60405180910390f35b61016660048036038101906101619190610b78565b610352565b005b610182600480360381019061017d9190610b78565b610374565b005b61018c6103ef565b6040516101999190610b05565b60405180910390f35b6101bc60048036038101906101b79190610bb6565b610413565b005b6101c6610560565b6040516101d39190610b05565b60405180910390f35b6101e4610584565b6040516101f19190610b05565b60405180910390f35b610214600480360381019061020f9190610c06565b6105a8565b005b61021e610664565b60405161022b9190610b05565b60405180910390f35b61024e60048036038101906102499190610b78565b610688565b60405161025b9190610a7f565b60405180910390f35b61026c6106ec565b6040516102799190610b05565b60405180910390f35b61028a610710565b6040516102979190610b05565b60405180910390f35b6102ba60048036038101906102b59190610b78565b610716565b005b5f7f7965db0b000000000000000000000000000000000000000000000000000000007bffffffffffffffffffffffffffffffffffffffffffffffffffffffff1916827bffffffffffffffffffffffffffffffffffffffffffffffffffffffff1916148061032e575061032d82610738565b5b9050919050565b5f60055f8381526020019081526020015f20600101549050919050565b61035b82610335565b610364816107a1565b61036e83836107b5565b50505050565b61037c61089f565b73ffffffffffffffffffffffffffffffffffffffff168173ffffffffffffffffffffffffffffffffffffffff16146103e0576040517f6697b23200000000000000000000000000000000000000000000000000000000815260040160405180910390fd5b6103ea82826108a6565b505050565b7f6659d833875b88922d2576dad6c137a09ba676496bb2010bf8a72397792167a081565b5f5f1b5f5f3373ffffffffffffffffffffffffffffffffffffffff1673ffffffffffffffffffffffffffffffffffffffff1681526020019081526020015f205f01541461048c576040517f3a81d6fc00000000000000000000000000000000000000000000000000000000815260040160405180910390fd5b60405180606001604052808481526020018381526020015f15158152505f5f3373ffffffffffffffffffffffffffffffffffffffff1673ffffffffffffffffffffffffffffffffffffffff1681526020019081526020015f205f820151815f0155602082015181600101556040820151816002015f6101000a81548160ff02191690831515021790555090505061052381336107b5565b507fa20f939780149ca47d8829844bb5c3746039def427f2212466a4fab666f362e8336040516105539190610c40565b60405180910390a1505050565b7f6d960d3aada907633a701143a0c8a0657b9ed1e77b6d2d8b56e5d8813982e10c81565b7f9d536f5f629a80fe6940f79b96b33c48ff97a31d5e6a548587bc178ef34b0ae481565b7f3c801090d1d22d8d8fe9837ef6d8ab50dfdff14e17d0039e333d4d7138ed50b36105d2816107a1565b60015f5f8473ffffffffffffffffffffffffffffffffffffffff1673ffffffffffffffffffffffffffffffffffffffff1681526020019081526020015f206002015f6101000a81548160ff0219169083151502179055507fa71e5be3b8d1770991d182d5d2454b8d0c3b315e9ebc5643895ee025fc2d8f09826040516106589190610c40565b60405180910390a15050565b7f3c801090d1d22d8d8fe9837ef6d8ab50dfdff14e17d0039e333d4d7138ed50b381565b5f60055f8481526020019081526020015f205f015f8373ffffffffffffffffffffffffffffffffffffffff1673ffffffffffffffffffffffffffffffffffffffff1681526020019081526020015f205f9054906101000a900460ff16905092915050565b7f85faced7bde13e1a7dad704b895f006e704f207617d68166b31ba2d79624862d81565b5f5f1b81565b61071f82610335565b610728816107a1565b61073283836108a6565b50505050565b5f7f01ffc9a7000000000000000000000000000000000000000000000000000000007bffffffffffffffffffffffffffffffffffffffffffffffffffffffff1916827bffffffffffffffffffffffffffffffffffffffffffffffffffffffff1916149050919050565b6107b2816107ad61089f565b610990565b50565b5f6107c08383610688565b61089557600160055f8581526020019081526020015f205f015f8473ffffffffffffffffffffffffffffffffffffffff1673ffffffffffffffffffffffffffffffffffffffff1681526020019081526020015f205f6101000a81548160ff02191690831515021790555061083261089f565b73ffffffffffffffffffffffffffffffffffffffff168273ffffffffffffffffffffffffffffffffffffffff16847f2f8788117e7eff1d82e926ec794901d17c78024a50270940304540a733656f0d60405160405180910390a460019050610899565b5f90505b92915050565b5f33905090565b5f6108b18383610688565b15610986575f60055f8581526020019081526020015f205f015f8473ffffffffffffffffffffffffffffffffffffffff1673ffffffffffffffffffffffffffffffffffffffff1681526020019081526020015f205f6101000a81548160ff02191690831515021790555061092361089f565b73ffffffffffffffffffffffffffffffffffffffff168273ffffffffffffffffffffffffffffffffffffffff16847ff6391f5c32d9c69d2a47ea670b442974b53935d1edc7fd64eb21e047a839171b60405160405180910390a46001905061098a565b5f90505b92915050565b61099a8282610688565b6109dd5780826040517fe2517d3f0000000000000000000000000000000000000000000000000000000081526004016109d4929190610c59565b60405180910390fd5b5050565b5f5ffd5b5f7fffffffff0000000000000000000000000000000000000000000000000000000082169050919050565b610a19816109e5565b8114610a23575f5ffd5b50565b5f81359050610a3481610a10565b92915050565b5f60208284031215610a4f57610a4e6109e1565b5b5f610a5c84828501610a26565b91505092915050565b5f8115159050919050565b610a7981610a65565b82525050565b5f602082019050610a925f830184610a70565b92915050565b5f819050919050565b610aaa81610a98565b8114610ab4575f5ffd5b50565b5f81359050610ac581610aa1565b92915050565b5f60208284031215610ae057610adf6109e1565b5b5f610aed84828501610ab7565b91505092915050565b610aff81610a98565b82525050565b5f602082019050610b185f830184610af6565b92915050565b5f73ffffffffffffffffffffffffffffffffffffffff82169050919050565b5f610b4782610b1e565b9050919050565b610b5781610b3d565b8114610b61575f5ffd5b50565b5f81359050610b7281610b4e565b92915050565b5f5f60408385031215610b8e57610b8d6109e1565b5b5f610b9b85828601610ab7565b9250506020610bac85828601610b64565b9150509250929050565b5f5f5f60608486031215610bcd57610bcc6109e1565b5b5f610bda86828701610ab7565b9350506020610beb86828701610ab7565b9250506040610bfc86828701610ab7565b9150509250925092565b5f60208284031215610c1b57610c1a6109e1565b5b5f610c2884828501610b64565b91505092915050565b610c3a81610b3d565b82525050565b5f602082019050610c535f830184610c31565b92915050565b5f604082019050610c6c5f830185610c31565b610c796020830184610af6565b939250505056fea26469706673582212203ff8bd7e9402c80e9e6d7b532271609bf0d6dfba7cfc2c3bafb43b7842186fdf64736f6c63430008210033","linkReferences":{}},"methodIdentifiers":{"DEFAULT_ADMIN_ROLE()":"a217fddf","DISTRIBUTOR()":"9c26149f","MANUFACTURER()":"49ec99ee","PHARMACY()":"74b7b639","REGULATOR()":"8dc436b6","WHOLESALER()":"7796f5c9","approveStakeholder(address)":"7e74d1c0","getRoleAdmin(bytes32)":"248a9ca3","grantRole(bytes32,address)":"2f2ff15d","hasRole(bytes32,address)":"91d14854","registerStakeholder(bytes32,bytes32,bytes32)":"6f8bac90","renounceRole(bytes32,address)":"36568abe","revokeRole(bytes32,address)":"d547741f","supportsInterface(bytes4)":"01ffc9a7"},"id":26}