{"abi":[{"type":"function","name":"getHistory","inputs":[{"name":"id","type":"uint64","internalType":"uint64"}],"outputs":[{"name":"","type":"tuple[]","internalType":"struct Storage.Distribution[]","components":[{"name":"from","type":"address","internalType":"address"},{"name":"to","type":"address","internalType":"address"},{"name":"qty","type":"uint96","internalType":"uint96"},{"name":"price","type":"uint96","internalType":"uint96"},{"name":"time","type":"uint32","internalType":"uint32"}]}],"stateMutability":"view"}],"bytecode":{"object":"0x6080604052348015600e575f5ffd5b5061047b8061001c5f395ff3fe608060405234801561000f575f5ffd5b5060043610610029575f3560e01c806349cc88ae1461002d575b5f5ffd5b61004760048036038101906100429190610269565b61005d565b6040516100549190610425565b60405180910390f35b606060035f8367ffffffffffffffff1667ffffffffffffffff1681526020019081526020015f20805480602002602001604051908101604052809291908181526020015f905b8282101561021d578382905f5260205f2090600302016040518060a00160405290815f82015f9054906101000a900473ffffffffffffffffffffffffffffffffffffffff1673ffffffffffffffffffffffffffffffffffffffff1673ffffffffffffffffffffffffffffffffffffffff168152602001600182015f9054906101000a900473ffffffffffffffffffffffffffffffffffffffff1673ffffffffffffffffffffffffffffffffffffffff1673ffffffffffffffffffffffffffffffffffffffff1681526020016001820160149054906101000a90046bffffffffffffffffffffffff166bffffffffffffffffffffffff166bffffffffffffffffffffffff168152602001600282015f9054906101000a90046bffffffffffffffffffffffff166bffffffffffffffffffffffff166bffffffffffffffffffffffff16815260200160028201600c9054906101000a900463ffffffff1663ffffffff1663ffffffff1681525050815260200190600101906100a3565b505050509050919050565b5f5ffd5b5f67ffffffffffffffff82169050919050565b6102488161022c565b8114610252575f5ffd5b50565b5f813590506102638161023f565b92915050565b5f6020828403121561027e5761027d610228565b5b5f61028b84828501610255565b91505092915050565b5f81519050919050565b5f82825260208201905092915050565b5f819050602082019050919050565b5f73ffffffffffffffffffffffffffffffffffffffff82169050919050565b5f6102e6826102bd565b9050919050565b6102f6816102dc565b82525050565b5f6bffffffffffffffffffffffff82169050919050565b61031c816102fc565b82525050565b5f63ffffffff82169050919050565b61033a81610322565b82525050565b60a082015f8201516103545f8501826102ed565b50602082015161036760208501826102ed565b50604082015161037a6040850182610313565b50606082015161038d6060850182610313565b5060808201516103a06080850182610331565b50505050565b5f6103b18383610340565b60a08301905092915050565b5f602082019050919050565b5f6103d382610294565b6103dd818561029e565b93506103e8836102ae565b805f5b838110156104185781516103ff88826103a6565b975061040a836103bd565b9250506001810190506103eb565b5085935050505092915050565b5f6020820190508181035f83015261043d81846103c9565b90509291505056fea264697066735822122017e99912125b2f6d971fa9005d075b9ce9041a80f8b99bd28cdc6af10bdb05d464736f6c63430008210033","linkReferences":{}},"methodIdentifiers":{"getHistory(uint64)":"49cc88ae"},"id":23}