{"abi":[{"type":"function","name":"DEFAULT_ADMIN_ROLE","inputs":[],"outputs":[{"name":"","type":"bytes32","internalType":"bytes32"}],"stateMutability":"view"},{"type":"function","name":"DISTRIBUTOR","inputs":[],"outputs":[{"name":"","type":"bytes32","internalType":"bytes32"}],"stateMutability":"view"},{"type":"function","name":"MANUFACTURER","inputs":[],"outputs":[{"name":"","type":"bytes32","internalType":"bytes32"}],"stateMutability":"view"},{"type":"function","name":"PHARMACY","inputs":[],"outputs":[{"name":"","type":"bytes32","internalType":"bytes32"}],"stateMutability":"view"},{"type":"function","name":"REGULATOR","inputs":[],"outputs":[{"name":"","type":"bytes32","internalType":"bytes32"}],"stateMutability":"view"},{"type":"function","name":"WHOLESALER","inputs":[],"outputs":[{"name":"","type":"bytes32","internalType":"bytes32"}],"stateMutability":"view"},{"type":"function","name":"createBatch","inputs":[{"name":"productId","type":"uint64","internalType":"uint64"},{"name":"qty","type":"uint96","internalType":"uint96"},{"name":"mfg","type":"uint32","internalType":"uint32"},{"name":"exp","type":"uint32","internalType":"uint32"}],"outputs":[],"stateMutability":"nonpayable"},{"type":"function","name":"getRoleAdmin","inputs":[{"name":"role","type":"bytes32","internalType":"bytes32"}],"outputs":[{"name":"","type":"bytes32","internalType":"bytes32"}],"stateMutability":"view"},{"type":"function","name":"grantRole","inputs":[{"name":"role","type":"bytes32","internalType":"bytes32"},{"name":"account","type":"address","internalType":"address"}],"outputs":[],"stateMutability":"nonpayable"},{"type":"function","name":"hasRole","inputs":[{"name":"role","type":"bytes32","internalType":"bytes32"},{"name":"account","type":"address","internalType":"address"}],"outputs":[{"name":"","type":"bool","internalType":"bool"}],"stateMutability":"view"},{"type":"function","name":"renounceRole","inputs":[{"name":"role","type":"bytes32","internalType":"bytes32"},{"name":"callerConfirmation","type":"address","internalType":"address"}],"outputs":[],"stateMutability":"nonpayable"},{"type":"function","name":"revokeRole","inputs":[{"name":"role","type":"bytes32","internalType":"bytes32"},{"name":"account","type":"address","internalType":"address"}],"outputs":[],"stateMutability":"nonpayable"},{"type":"function","name":"supportsInterface","inputs":[{"name":"interfaceId","type":"bytes4","internalType":"bytes4"}],"outputs":[{"name":"","type":"bool","internalType":"bool"}],"stateMutability":"view"},{"type":"function","name":"transferBatch","inputs":[{"name":"id","type":"uint64","internalType":"uint64"},{"name":"to","type":"address","internalType":"address"},{"name":"qty","type":"uint96","internalType":"uint96"},{"name":"price","type":"uint96","internalType":"uint96"}],"outputs":[],"stateMutability":"nonpayable"},{"type":"event","name":"BatchCreated","inputs":[{"name":"id","type":"uint64","indexed":false,"internalType":"uint64"}],"anonymous":false},{"type":"event","name":"BatchTransferred","inputs":[{"name":"id","type":"uint64","indexed":false,"internalType":"uint64"},{"name":"to","type":"address","indexed":false,"internalType":"address"}],"anonymous":false},{"type":"event","name":"RoleAdminChanged","inputs":[{"name":"role","type":"bytes32","indexed":true,"internalType":"bytes32"},{"name":"previousAdminRole","type":"bytes32","indexed":true,"internalType":"bytes32"},{"name":"newAdminRole","type":"bytes32","indexed":true,"internalType":"bytes32"}],"anonymous":false},{"type":"event","name":"RoleGranted","inputs":[{"name":"role","type":"bytes32","indexed":true,"internalType":"bytes32"},{"name":"account","type":"address","indexed":true,"internalType":"address"},{"name":"sender","type":"address","indexed":true,"internalType":"address"}],"anonymous":false},{"type":"event","name":"RoleRevoked","inputs":[{"name":"role","type":"bytes32","indexed":true,"internalType":"bytes32"},{"name":"account","type":"address","indexed":true,"internalType":"address"},{"name":"sender","type":"address","indexed":true,"internalType":"address"}],"anonymous":false},{"type":"error","name":"AccessControlBadConfirmation","inputs":[]},{"type":"error","name":"AccessControlUnauthorizedAccount","inputs":[{"name":"account","type":"address","internalType":"address"},{"name":"neededRole","type":"bytes32","internalType":"bytes32"}]},{"type":"error","name":"Insufficient","inputs":[]},{"type":"error","name":"InvalidRoute","inputs":[]},{"type":"error","name":"NotApproved","inputs":[]},{"type":"error","name":"NotOwner","inputs":[]}],"bytecode":{"object":"0x608060405234801561000f575f5ffd5b506100225f5f1b3361005960201b60201c565b506100537f3c801090d1d22d8d8fe9837ef6d8ab50dfdff14e17d0039e333d4d7138ed50b33361005960201b60201c565b506101ba565b5f61006a838361014f60201b60201c565b61014557600160055f8581526020019081526020015f205f015f8473ffffffffffffffffffffffffffffffffffffffff1673ffffffffffffffffffffffffffffffffffffffff1681526020019081526020015f205f6101000a81548160ff0219169083151502179055506100e26101b360201b60201c565b73ffffffffffffffffffffffffffffffffffffffff168273ffffffffffffffffffffffffffffffffffffffff16847f2f8788117e7eff1d82e926ec794901d17c78024a50270940304540a733656f0d60405160405180910390a460019050610149565b5f90505b92915050565b5f60055f8481526020019081526020015f205f015f8373ffffffffffffffffffffffffffffffffffffffff1673ffffffffffffffffffffffffffffffffffffffff1681526020019081526020015f205f9054906101000a900460ff16905092915050565b5f33905090565b6115dc806101c75f395ff3fe608060405234801561000f575f5ffd5b50600436106100e8575f3560e01c806374b7b6391161008a57806391d148541161006457806391d14854146102345780639c26149f14610264578063a217fddf14610282578063d547741f146102a0576100e8565b806374b7b639146101da5780637796f5c9146101f85780638dc436b614610216576100e8565b80632f2ff15d116100c65780632f2ff15d1461016857806336568abe1461018457806349ec99ee146101a05780635b04f332146101be576100e8565b806301ffc9a7146100ec57806314386f041461011c578063248a9ca314610138575b5f5ffd5b610106600480360381019061010191906111ba565b6102bc565b60405161011391906111ff565b60405180910390f35b610136600480360381019061013191906112cf565b610335565b005b610152600480360381019061014d9190611366565b610727565b60405161015f91906113a0565b60405180910390f35b610182600480360381019061017d9190611413565b610744565b005b61019e60048036038101906101999190611413565b610766565b005b6101a86107e1565b6040516101b591906113a0565b60405180910390f35b6101d860048036038101906101d39190611451565b610805565b005b6101e2610d9c565b6040516101ef91906113a0565b60405180910390f35b610200610dc0565b60405161020d91906113a0565b60405180910390f35b61021e610de4565b60405161022b91906113a0565b60405180910390f35b61024e60048036038101906102499190611413565b610e08565b60405161025b91906111ff565b60405180910390f35b61026c610e6c565b60405161027991906113a0565b60405180910390f35b61028a610e90565b60405161029791906113a0565b60405180910390f35b6102ba60048036038101906102b59190611413565b610e96565b005b5f7f7965db0b000000000000000000000000000000000000000000000000000000007bffffffffffffffffffffffffffffffffffffffffffffffffffffffff1916827bffffffffffffffffffffffffffffffffffffffffffffffffffffffff1916148061032e575061032d82610eb8565b5b9050919050565b7f6659d833875b88922d2576dad6c137a09ba676496bb2010bf8a72397792167a061035f81610f21565b5f60015f8767ffffffffffffffff1667ffffffffffffffff1681526020019081526020015f206040518060600160405290815f82015f9054906101000a900473ffffffffffffffffffffffffffffffffffffffff1673ffffffffffffffffffffffffffffffffffffffff1673ffffffffffffffffffffffffffffffffffffffff16815260200160018201548152602001600282015f9054906101000a900460ff16151515158152505090508060400151610445576040517fc19f17a900000000000000000000000000000000000000000000000000000000815260040160405180910390fd5b3373ffffffffffffffffffffffffffffffffffffffff16815f015173ffffffffffffffffffffffffffffffffffffffff16146104ad576040517f30cd747100000000000000000000000000000000000000000000000000000000815260040160405180910390fd5b6004600881819054906101000a900467ffffffffffffffff168092919060010191906101000a81548167ffffffffffffffff021916908367ffffffffffffffff160217905550506040518060c00160405280866bffffffffffffffffffffffff168152602001866bffffffffffffffffffffffff1681526020018563ffffffff1681526020018463ffffffff1681526020013373ffffffffffffffffffffffffffffffffffffffff1681526020018767ffffffffffffffff1681525060025f600460089054906101000a900467ffffffffffffffff1667ffffffffffffffff1667ffffffffffffffff1681526020019081526020015f205f820151815f015f6101000a8154816bffffffffffffffffffffffff02191690836bffffffffffffffffffffffff1602179055506020820151815f01600c6101000a8154816bffffffffffffffffffffffff02191690836bffffffffffffffffffffffff1602179055506040820151815f0160186101000a81548163ffffffff021916908363ffffffff1602179055506060820151815f01601c6101000a81548163ffffffff021916908363ffffffff1602179055506080820151816001015f6101000a81548173ffffffffffffffffffffffffffffffffffffffff021916908373ffffffffffffffffffffffffffffffffffffffff16021790555060a08201518160010160146101000a81548167ffffffffffffffff021916908367ffffffffffffffff1602179055509050507f91841964eee17919968eeb9db4dbfa4e6be07a43472dd95fb438685d84d16abc600460089054906101000a900467ffffffffffffffff1660405161071791906114c4565b60405180910390a1505050505050565b5f60055f8381526020019081526020015f20600101549050919050565b61074d82610727565b61075681610f21565b6107608383610f35565b50505050565b61076e61101f565b73ffffffffffffffffffffffffffffffffffffffff168173ffffffffffffffffffffffffffffffffffffffff16146107d2576040517f6697b23200000000000000000000000000000000000000000000000000000000815260040160405180910390fd5b6107dc8282611026565b505050565b7f6659d833875b88922d2576dad6c137a09ba676496bb2010bf8a72397792167a081565b5f60025f8667ffffffffffffffff1667ffffffffffffffff1681526020019081526020015f2090503373ffffffffffffffffffffffffffffffffffffffff16816001015f9054906101000a900473ffffffffffffffffffffffffffffffffffffffff1673ffffffffffffffffffffffffffffffffffffffff16146108b5576040517f30cd747100000000000000000000000000000000000000000000000000000000815260040160405180910390fd5b826bffffffffffffffffffffffff16815f01600c9054906101000a90046bffffffffffffffffffffffff166bffffffffffffffffffffffff161015610926576040517f1dc930eb00000000000000000000000000000000000000000000000000000000815260040160405180910390fd5b6109507f6659d833875b88922d2576dad6c137a09ba676496bb2010bf8a72397792167a033610e08565b801561098357506109817f85faced7bde13e1a7dad704b895f006e704f207617d68166b31ba2d79624862d85610e08565b155b156109ba576040517f84e505d200000000000000000000000000000000000000000000000000000000815260040160405180910390fd5b6109e47f85faced7bde13e1a7dad704b895f006e704f207617d68166b31ba2d79624862d33610e08565b8015610a175750610a157f9d536f5f629a80fe6940f79b96b33c48ff97a31d5e6a548587bc178ef34b0ae485610e08565b155b15610a4e576040517f84e505d200000000000000000000000000000000000000000000000000000000815260040160405180910390fd5b610a787f9d536f5f629a80fe6940f79b96b33c48ff97a31d5e6a548587bc178ef34b0ae433610e08565b8015610aab5750610aa97f6d960d3aada907633a701143a0c8a0657b9ed1e77b6d2d8b56e5d8813982e10c85610e08565b155b15610ae2576040517f84e505d200000000000000000000000000000000000000000000000000000000815260040160405180910390fd5b82815f01600c8282829054906101000a90046bffffffffffffffffffffffff16610b0c919061150a565b92506101000a8154816bffffffffffffffffffffffff02191690836bffffffffffffffffffffffff16021790555083816001015f6101000a81548173ffffffffffffffffffffffffffffffffffffffff021916908373ffffffffffffffffffffffffffffffffffffffff16021790555060035f8667ffffffffffffffff1667ffffffffffffffff1681526020019081526020015f206040518060a001604052803373ffffffffffffffffffffffffffffffffffffffff1681526020018673ffffffffffffffffffffffffffffffffffffffff168152602001856bffffffffffffffffffffffff168152602001846bffffffffffffffffffffffff1681526020014263ffffffff16815250908060018154018082558091505060019003905f5260205f2090600302015f909190919091505f820151815f015f6101000a81548173ffffffffffffffffffffffffffffffffffffffff021916908373ffffffffffffffffffffffffffffffffffffffff1602179055506020820151816001015f6101000a81548173ffffffffffffffffffffffffffffffffffffffff021916908373ffffffffffffffffffffffffffffffffffffffff16021790555060408201518160010160146101000a8154816bffffffffffffffffffffffff02191690836bffffffffffffffffffffffff1602179055506060820151816002015f6101000a8154816bffffffffffffffffffffffff02191690836bffffffffffffffffffffffff160217905550608082015181600201600c6101000a81548163ffffffff021916908363ffffffff16021790555050507fc8cd514ace7a8268462a6d68d609799d0dc500c4c4e0d9644816a87661ea68d18585604051610d8d929190611558565b60405180910390a15050505050565b7f6d960d3aada907633a701143a0c8a0657b9ed1e77b6d2d8b56e5d8813982e10c81565b7f9d536f5f629a80fe6940f79b96b33c48ff97a31d5e6a548587bc178ef34b0ae481565b7f3c801090d1d22d8d8fe9837ef6d8ab50dfdff14e17d0039e333d4d7138ed50b381565b5f60055f8481526020019081526020015f205f015f8373ffffffffffffffffffffffffffffffffffffffff1673ffffffffffffffffffffffffffffffffffffffff1681526020019081526020015f205f9054906101000a900460ff16905092915050565b7f85faced7bde13e1a7dad704b895f006e704f207617d68166b31ba2d79624862d81565b5f5f1b81565b610e9f82610727565b610ea881610f21565b610eb28383611026565b50505050565b5f7f01ffc9a7000000000000000000000000000000000000000000000000000000007bffffffffffffffffffffffffffffffffffffffffffffffffffffffff1916827bffffffffffffffffffffffffffffffffffffffffffffffffffffffff1916149050919050565b610f3281610f2d61101f565b611110565b50565b5f610f408383610e08565b61101557600160055f8581526020019081526020015f205f015f8473ffffffffffffffffffffffffffffffffffffffff1673ffffffffffffffffffffffffffffffffffffffff1681526020019081526020015f205f6101000a81548160ff021916908315150217905550610fb261101f565b73ffffffffffffffffffffffffffffffffffffffff168273ffffffffffffffffffffffffffffffffffffffff16847f2f8788117e7eff1d82e926ec794901d17c78024a50270940304540a733656f0d60405160405180910390a460019050611019565b5f90505b92915050565b5f33905090565b5f6110318383610e08565b15611106575f60055f8581526020019081526020015f205f015f8473ffffffffffffffffffffffffffffffffffffffff1673ffffffffffffffffffffffffffffffffffffffff1681526020019081526020015f205f6101000a81548160ff0219169083151502179055506110a361101f565b73ffffffffffffffffffffffffffffffffffffffff168273ffffffffffffffffffffffffffffffffffffffff16847ff6391f5c32d9c69d2a47ea670b442974b53935d1edc7fd64eb21e047a839171b60405160405180910390a46001905061110a565b5f90505b92915050565b61111a8282610e08565b61115d5780826040517fe2517d3f00000000000000000000000000000000000000000000000000000000815260040161115492919061157f565b60405180910390fd5b5050565b5f5ffd5b5f7fffffffff0000000000000000000000000000000000000000000000000000000082169050919050565b61119981611165565b81146111a3575f5ffd5b50565b5f813590506111b481611190565b92915050565b5f602082840312156111cf576111ce611161565b5b5f6111dc848285016111a6565b91505092915050565b5f8115159050919050565b6111f9816111e5565b82525050565b5f6020820190506112125f8301846111f0565b92915050565b5f67ffffffffffffffff82169050919050565b61123481611218565b811461123e575f5ffd5b50565b5f8135905061124f8161122b565b92915050565b5f6bffffffffffffffffffffffff82169050919050565b61127581611255565b811461127f575f5ffd5b50565b5f813590506112908161126c565b92915050565b5f63ffffffff82169050919050565b6112ae81611296565b81146112b8575f5ffd5b50565b5f813590506112c9816112a5565b92915050565b5f5f5f5f608085870312156112e7576112e6611161565b5b5f6112f487828801611241565b945050602061130587828801611282565b9350506040611316878288016112bb565b9250506060611327878288016112bb565b91505092959194509250565b5f819050919050565b61134581611333565b811461134f575f5ffd5b50565b5f813590506113608161133c565b92915050565b5f6020828403121561137b5761137a611161565b5b5f61138884828501611352565b91505092915050565b61139a81611333565b82525050565b5f6020820190506113b35f830184611391565b92915050565b5f73ffffffffffffffffffffffffffffffffffffffff82169050919050565b5f6113e2826113b9565b9050919050565b6113f2816113d8565b81146113fc575f5ffd5b50565b5f8135905061140d816113e9565b92915050565b5f5f6040838503121561142957611428611161565b5b5f61143685828601611352565b9250506020611447858286016113ff565b9150509250929050565b5f5f5f5f6080858703121561146957611468611161565b5b5f61147687828801611241565b9450506020611487878288016113ff565b935050604061149887828801611282565b92505060606114a987828801611282565b91505092959194509250565b6114be81611218565b82525050565b5f6020820190506114d75f8301846114b5565b92915050565b7f4e487b71000000000000000000000000000000000000000000000000000000005f52601160045260245ffd5b5f61151482611255565b915061151f83611255565b925082820390506bffffffffffffffffffffffff811115611543576115426114dd565b5b92915050565b611552816113d8565b82525050565b5f60408201905061156b5f8301856114b5565b6115786020830184611549565b9392505050565b5f6040820190506115925f830185611549565b61159f6020830184611391565b939250505056fea26469706673582212206fa192bee8db61c89793ac289dfc587f3249a0c42c6c08967f91699b2893d91364736f6c63430008210033","linkReferences":{}},"methodIdentifiers":{"DEFAULT_ADMIN_ROLE()":"a217fddf","DISTRIBUTOR()":"9c26149f","MANUFACTURER()":"49ec99ee","PHARMACY()":"74b7b639","REGULATOR()":"8dc436b6","WHOLESALER()":"7796f5c9","createBatch(uint64,uint96,uint32,uint32)":"14386f04","getRoleAdmin(bytes32)":"248a9ca3","grantRole(bytes32,address)":"2f2ff15d","hasRole(bytes32,address)":"91d14854","renounceRole(bytes32,address)":"36568abe","revokeRole(bytes32,address)":"d547741f","supportsInterface(bytes4)":"01ffc9a7","transferBatch(uint64,address,uint96,uint96)":"5b04f332"},"id":21}