{"abi":[{"type":"function","name":"DEFAULT_ADMIN_ROLE","inputs":[],"outputs":[{"name":"","type":"bytes32","internalType":"bytes32"}],"stateMutability":"view"},{"type":"function","name":"DISTRIBUTOR","inputs":[],"outputs":[{"name":"","type":"bytes32","internalType":"bytes32"}],"stateMutability":"view"},{"type":"function","name":"MANUFACTURER","inputs":[],"outputs":[{"name":"","type":"bytes32","internalType":"bytes32"}],"stateMutability":"view"},{"type":"function","name":"PHARMACY","inputs":[],"outputs":[{"name":"","type":"bytes32","internalType":"bytes32"}],"stateMutability":"view"},{"type":"function","name":"REGULATOR","inputs":[],"outputs":[{"name":"","type":"bytes32","internalType":"bytes32"}],"stateMutability":"view"},{"type":"function","name":"WHOLESALER","inputs":[],"outputs":[{"name":"","type":"bytes32","internalType":"bytes32"}],"stateMutability":"view"},{"type":"function","name":"approveProduct","inputs":[{"name":"id","type":"uint64","internalType":"uint64"}],"outputs":[],"stateMutability":"nonpayable"},{"type":"function","name":"getRoleAdmin","inputs":[{"name":"role","type":"bytes32","internalType":"bytes32"}],"outputs":[{"name":"","type":"bytes32","internalType":"bytes32"}],"stateMutability":"view"},{"type":"function","name":"grantRole","inputs":[{"name":"role","type":"bytes32","internalType":"bytes32"},{"name":"account","type":"address","internalType":"address"}],"outputs":[],"stateMutability":"nonpayable"},{"type":"function","name":"hasRole","inputs":[{"name":"role","type":"bytes32","internalType":"bytes32"},{"name":"account","type":"address","internalType":"address"}],"outputs":[{"name":"","type":"bool","internalType":"bool"}],"stateMutability":"view"},{"type":"function","name":"registerProduct","inputs":[{"name":"meta","type":"bytes32","internalType":"bytes32"}],"outputs":[],"stateMutability":"nonpayable"},{"type":"function","name":"renounceRole","inputs":[{"name":"role","type":"bytes32","internalType":"bytes32"},{"name":"callerConfirmation","type":"address","internalType":"address"}],"outputs":[],"stateMutability":"nonpayable"},{"type":"function","name":"revokeRole","inputs":[{"name":"role","type":"bytes32","internalType":"bytes32"},{"name":"account","type":"address","internalType":"address"}],"outputs":[],"stateMutability":"nonpayable"},{"type":"function","name":"supportsInterface","inputs":[{"name":"interfaceId","type":"bytes4","internalType":"bytes4"}],"outputs":[{"name":"","type":"bool","internalType":"bool"}],"stateMutability":"view"},{"type":"event","name":"ProductApproved","inputs":[{"name":"id","type":"uint64","indexed":false,"internalType":"uint64"}],"anonymous":false},{"type":"event","name":"ProductQueued","inputs":[{"name":"id","type":"uint64","indexed":false,"internalType":"uint64"}],"anonymous":false},{"type":"event","name":"RoleAdminChanged","inputs":[{"name":"role","type":"bytes32","indexed":true,"internalType":"bytes32"},{"name":"previousAdminRole","type":"bytes32","indexed":true,"internalType":"bytes32"},{"name":"newAdminRole","type":"bytes32","indexed":true,"internalType":"bytes32"}],"anonymous":false},{"type":"event","name":"RoleGranted","inputs":[{"name":"role","type":"bytes32","indexed":true,"internalType":"bytes32"},{"name":"account","type":"address","indexed":true,"internalType":"address"},{"name":"sender","type":"address","indexed":true,"internalType":"address"}],"anonymous":false},{"type":"event","name":"RoleRevoked","inputs":[{"name":"role","type":"bytes32","indexed":true,"internalType":"bytes32"},{"name":"account","type":"address","indexed":true,"internalType":"address"},{"name":"sender","type":"address","indexed":true,"internalType":"address"}],"anonymous":false},{"type":"error","name":"AccessControlBadConfirmation","inputs":[]},{"type":"error","name":"AccessControlUnauthorizedAccount","inputs":[{"name":"account","type":"address","internalType":"address"},{"name":"neededRole","type":"bytes32","internalType":"bytes32"}]},{"type":"error","name":"NotApproved","inputs":[]}],"bytecode":{"object":"0x608060405234801561000f575f5ffd5b506100225f5f1b3361005960201b60201c565b506100537f3c801090d1d22d8d8fe9837ef6d8ab50dfdff14e17d0039e333d4d7138ed50b33361005960201b60201c565b506101ba565b5f61006a838361014f60201b60201c565b61014557600160055f8581526020019081526020015f205f015f8473ffffffffffffffffffffffffffffffffffffffff1673ffffffffffffffffffffffffffffffffffffffff1681526020019081526020015f205f6101000a81548160ff0219169083151502179055506100e26101b360201b60201c565b73ffffffffffffffffffffffffffffffffffffffff168273ffffffffffffffffffffffffffffffffffffffff16847f2f8788117e7eff1d82e926ec794901d17c78024a50270940304540a733656f0d60405160405180910390a460019050610149565b5f90505b92915050565b5f60055f8481526020019081526020015f205f015f8373ffffffffffffffffffffffffffffffffffffffff1673ffffffffffffffffffffffffffffffffffffffff1681526020019081526020015f205f9054906101000a900460ff16905092915050565b5f33905090565b610d6c806101c75f395ff3fe608060405234801561000f575f5ffd5b50600436106100e8575f3560e01c80637796f5c91161008a57806391d148541161006457806391d14854146102345780639c26149f14610264578063a217fddf14610282578063d547741f146102a0576100e8565b80637796f5c9146101dc57806389e100ca146101fa5780638dc436b614610216576100e8565b80632f2ff15d116100c65780632f2ff15d1461016857806336568abe1461018457806349ec99ee146101a057806374b7b639146101be576100e8565b806301ffc9a7146100ec57806308c0d8c71461011c578063248a9ca314610138575b5f5ffd5b61010660048036038101906101019190610af4565b6102bc565b6040516101139190610b39565b60405180910390f35b61013660048036038101906101319190610b8f565b610335565b005b610152600480360381019061014d9190610bed565b6103d9565b60405161015f9190610c27565b60405180910390f35b610182600480360381019061017d9190610c9a565b6103f6565b005b61019e60048036038101906101999190610c9a565b610418565b005b6101a8610493565b6040516101b59190610c27565b60405180910390f35b6101c66104b7565b6040516101d39190610c27565b60405180910390f35b6101e46104db565b6040516101f19190610c27565b60405180910390f35b610214600480360381019061020f9190610bed565b6104ff565b005b61021e61071e565b60405161022b9190610c27565b60405180910390f35b61024e60048036038101906102499190610c9a565b610742565b60405161025b9190610b39565b60405180910390f35b61026c6107a6565b6040516102799190610c27565b60405180910390f35b61028a6107ca565b6040516102979190610c27565b60405180910390f35b6102ba60048036038101906102b59190610c9a565b6107d0565b005b5f7f7965db0b000000000000000000000000000000000000000000000000000000007bffffffffffffffffffffffffffffffffffffffffffffffffffffffff1916827bffffffffffffffffffffffffffffffffffffffffffffffffffffffff1916148061032e575061032d826107f2565b5b9050919050565b7f3c801090d1d22d8d8fe9837ef6d8ab50dfdff14e17d0039e333d4d7138ed50b361035f8161085b565b6001805f8467ffffffffffffffff1667ffffffffffffffff1681526020019081526020015f206002015f6101000a81548160ff0219169083151502179055507f037a2f6970a00fbdd1ca7adad6fdbf9b4508ca1aa0c73e30421859897d2b3144826040516103cd9190610ce7565b60405180910390a15050565b5f60055f8381526020019081526020015f20600101549050919050565b6103ff826103d9565b6104088161085b565b610412838361086f565b50505050565b610420610959565b73ffffffffffffffffffffffffffffffffffffffff168173ffffffffffffffffffffffffffffffffffffffff1614610484576040517f6697b23200000000000000000000000000000000000000000000000000000000815260040160405180910390fd5b61048e8282610960565b505050565b7f6659d833875b88922d2576dad6c137a09ba676496bb2010bf8a72397792167a081565b7f6d960d3aada907633a701143a0c8a0657b9ed1e77b6d2d8b56e5d8813982e10c81565b7f9d536f5f629a80fe6940f79b96b33c48ff97a31d5e6a548587bc178ef34b0ae481565b7f6659d833875b88922d2576dad6c137a09ba676496bb2010bf8a72397792167a06105298161085b565b5f5f3373ffffffffffffffffffffffffffffffffffffffff1673ffffffffffffffffffffffffffffffffffffffff1681526020019081526020015f206002015f9054906101000a900460ff166105ab576040517fc19f17a900000000000000000000000000000000000000000000000000000000815260040160405180910390fd5b60045f81819054906101000a900467ffffffffffffffff168092919060010191906101000a81548167ffffffffffffffff021916908367ffffffffffffffff1602179055505060405180606001604052803373ffffffffffffffffffffffffffffffffffffffff1681526020018381526020015f151581525060015f60045f9054906101000a900467ffffffffffffffff1667ffffffffffffffff1667ffffffffffffffff1681526020019081526020015f205f820151815f015f6101000a81548173ffffffffffffffffffffffffffffffffffffffff021916908373ffffffffffffffffffffffffffffffffffffffff160217905550602082015181600101556040820151816002015f6101000a81548160ff0219169083151502179055509050507f80bbcfd84d24832885565e2fb11e881f3dca2e541195124c74cb1f985a5f12b660045f9054906101000a900467ffffffffffffffff166040516107129190610ce7565b60405180910390a15050565b7f3c801090d1d22d8d8fe9837ef6d8ab50dfdff14e17d0039e333d4d7138ed50b381565b5f60055f8481526020019081526020015f205f015f8373ffffffffffffffffffffffffffffffffffffffff1673ffffffffffffffffffffffffffffffffffffffff1681526020019081526020015f205f9054906101000a900460ff16905092915050565b7f85faced7bde13e1a7dad704b895f006e704f207617d68166b31ba2d79624862d81565b5f5f1b81565b6107d9826103d9565b6107e28161085b565b6107ec8383610960565b50505050565b5f7f01ffc9a7000000000000000000000000000000000000000000000000000000007bffffffffffffffffffffffffffffffffffffffffffffffffffffffff1916827bffffffffffffffffffffffffffffffffffffffffffffffffffffffff1916149050919050565b61086c81610867610959565b610a4a565b50565b5f61087a8383610742565b61094f57600160055f8581526020019081526020015f205f015f8473ffffffffffffffffffffffffffffffffffffffff1673ffffffffffffffffffffffffffffffffffffffff1681526020019081526020015f205f6101000a81548160ff0219169083151502179055506108ec610959565b73ffffffffffffffffffffffffffffffffffffffff168273ffffffffffffffffffffffffffffffffffffffff16847f2f8788117e7eff1d82e926ec794901d17c78024a50270940304540a733656f0d60405160405180910390a460019050610953565b5f90505b92915050565b5f33905090565b5f61096b8383610742565b15610a40575f60055f8581526020019081526020015f205f015f8473ffffffffffffffffffffffffffffffffffffffff1673ffffffffffffffffffffffffffffffffffffffff1681526020019081526020015f205f6101000a81548160ff0219169083151502179055506109dd610959565b73ffffffffffffffffffffffffffffffffffffffff168273ffffffffffffffffffffffffffffffffffffffff16847ff6391f5c32d9c69d2a47ea670b442974b53935d1edc7fd64eb21e047a839171b60405160405180910390a460019050610a44565b5f90505b92915050565b610a548282610742565b610a975780826040517fe2517d3f000000000000000000000000000000000000000000000000000000008152600401610a8e929190610d0f565b60405180910390fd5b5050565b5f5ffd5b5f7fffffffff0000000000000000000000000000000000000000000000000000000082169050919050565b610ad381610a9f565b8114610add575f5ffd5b50565b5f81359050610aee81610aca565b92915050565b5f60208284031215610b0957610b08610a9b565b5b5f610b1684828501610ae0565b91505092915050565b5f8115159050919050565b610b3381610b1f565b82525050565b5f602082019050610b4c5f830184610b2a565b92915050565b5f67ffffffffffffffff82169050919050565b610b6e81610b52565b8114610b78575f5ffd5b50565b5f81359050610b8981610b65565b92915050565b5f60208284031215610ba457610ba3610a9b565b5b5f610bb184828501610b7b565b91505092915050565b5f819050919050565b610bcc81610bba565b8114610bd6575f5ffd5b50565b5f81359050610be781610bc3565b92915050565b5f60208284031215610c0257610c01610a9b565b5b5f610c0f84828501610bd9565b91505092915050565b610c2181610bba565b82525050565b5f602082019050610c3a5f830184610c18565b92915050565b5f73ffffffffffffffffffffffffffffffffffffffff82169050919050565b5f610c6982610c40565b9050919050565b610c7981610c5f565b8114610c83575f5ffd5b50565b5f81359050610c9481610c70565b92915050565b5f5f60408385031215610cb057610caf610a9b565b5b5f610cbd85828601610bd9565b9250506020610cce85828601610c86565b9150509250929050565b610ce181610b52565b82525050565b5f602082019050610cfa5f830184610cd8565b92915050565b610d0981610c5f565b82525050565b5f604082019050610d225f830185610d00565b610d2f6020830184610c18565b939250505056fea264697066735822122071690a9a90e21d28137f827dfd314c2b110892d82d7a10f5ea3eabc9f275e09e64736f6c63430008210033","linkReferences":{}},"methodIdentifiers":{"DEFAULT_ADMIN_ROLE()":"a217fddf","DISTRIBUTOR()":"9c26149f","MANUFACTURER()":"49ec99ee","PHARMACY()":"74b7b639","REGULATOR()":"8dc436b6","WHOLESALER()":"7796f5c9","approveProduct(uint64)":"08c0d8c7","getRoleAdmin(bytes32)":"248a9ca3","grantRole(bytes32,address)":"2f2ff15d","hasRole(bytes32,address)":"91d14854","registerProduct(bytes32)":"89e100ca","renounceRole(bytes32,address)":"36568abe","revokeRole(bytes32,address)":"d547741f","supportsInterface(bytes4)":"01ffc9a7"},"id":24}