{"abi":[{"type":"function","name":"DEFAULT_ADMIN_ROLE","inputs":[],"outputs":[{"name":"","type":"bytes32","internalType":"bytes32"}],"stateMutability":"view"},{"type":"function","name":"DISTRIBUTOR","inputs":[],"outputs":[{"name":"","type":"bytes32","internalType":"bytes32"}],"stateMutability":"view"},{"type":"function","name":"MANUFACTURER","inputs":[],"outputs":[{"name":"","type":"bytes32","internalType":"bytes32"}],"stateMutability":"view"},{"type":"function","name":"PHARMACY","inputs":[],"outputs":[{"name":"","type":"bytes32","internalType":"bytes32"}],"stateMutability":"view"},{"type":"function","name":"REGULATOR","inputs":[],"outputs":[{"name":"","type":"bytes32","internalType":"bytes32"}],"stateMutability":"view"},{"type":"function","name":"WHOLESALER","inputs":[],"outputs":[{"name":"","type":"bytes32","internalType":"bytes32"}],"stateMutability":"view"},{"type":"function","name":"getRoleAdmin","inputs":[{"name":"role","type":"bytes32","internalType":"bytes32"}],"outputs":[{"name":"","type":"bytes32","internalType":"bytes32"}],"stateMutability":"view"},{"type":"function","name":"grantRole","inputs":[{"name":"role","type":"bytes32","internalType":"bytes32"},{"name":"account","type":"address","internalType":"address"}],"outputs":[],"stateMutability":"nonpayable"},{"type":"function","name":"hasRole","inputs":[{"name":"role","type":"bytes32","internalType":"bytes32"},{"name":"account","type":"address","internalType":"address"}],"outputs":[{"name":"","type":"bool","internalType":"bool"}],"stateMutability":"view"},{"type":"function","name":"renounceRole","inputs":[{"name":"role","type":"bytes32","internalType":"bytes32"},{"name":"callerConfirmation","type":"address","internalType":"address"}],"outputs":[],"stateMutability":"nonpayable"},{"type":"function","name":"revokeRole","inputs":[{"name":"role","type":"bytes32","internalType":"bytes32"},{"name":"account","type":"address","internalType":"address"}],"outputs":[],"stateMutability":"nonpayable"},{"type":"function","name":"sell","inputs":[{"name":"id","type":"uint64","internalType":"uint64"},{"name":"consumer","type":"address","internalType":"address"},{"name":"qty","type":"uint96","internalType":"uint96"}],"outputs":[],"stateMutability":"nonpayable"},{"type":"function","name":"supportsInterface","inputs":[{"name":"interfaceId","type":"bytes4","internalType":"bytes4"}],"outputs":[{"name":"","type":"bool","internalType":"bool"}],"stateMutability":"view"},{"type":"event","name":"RoleAdminChanged","inputs":[{"name":"role","type":"bytes32","indexed":true,"internalType":"bytes32"},{"name":"previousAdminRole","type":"bytes32","indexed":true,"internalType":"bytes32"},{"name":"newAdminRole","type":"bytes32","indexed":true,"internalType":"bytes32"}],"anonymous":false},{"type":"event","name":"RoleGranted","inputs":[{"name":"role","type":"bytes32","indexed":true,"internalType":"bytes32"},{"name":"account","type":"address","indexed":true,"internalType":"address"},{"name":"sender","type":"address","indexed":true,"internalType":"address"}],"anonymous":false},{"type":"event","name":"RoleRevoked","inputs":[{"name":"role","type":"bytes32","indexed":true,"internalType":"bytes32"},{"name":"account","type":"address","indexed":true,"internalType":"address"},{"name":"sender","type":"address","indexed":true,"internalType":"address"}],"anonymous":false},{"type":"event","name":"UnitsSold","inputs":[{"name":"batch","type":"uint64","indexed":false,"internalType":"uint64"},{"name":"buyer","type":"address","indexed":false,"internalType":"address"}],"anonymous":false},{"type":"error","name":"AccessControlBadConfirmation","inputs":[]},{"type":"error","name":"AccessControlUnauthorizedAccount","inputs":[{"name":"account","type":"address","internalType":"address"},{"name":"neededRole","type":"bytes32","internalType":"bytes32"}]},{"type":"error","name":"Insufficient","inputs":[]},{"type":"error","name":"NotOwner","inputs":[]}],"bytecode":{"object":"0x608060405234801561000f575f5ffd5b506100225f5f1b3361005960201b60201c565b506100537f3c801090d1d22d8d8fe9837ef6d8ab50dfdff14e17d0039e333d4d7138ed50b33361005960201b60201c565b506101ba565b5f61006a838361014f60201b60201c565b61014557600160055f8581526020019081526020015f205f015f8473ffffffffffffffffffffffffffffffffffffffff1673ffffffffffffffffffffffffffffffffffffffff1681526020019081526020015f205f6101000a81548160ff0219169083151502179055506100e26101b360201b60201c565b73ffffffffffffffffffffffffffffffffffffffff168273ffffffffffffffffffffffffffffffffffffffff16847f2f8788117e7eff1d82e926ec794901d17c78024a50270940304540a733656f0d60405160405180910390a460019050610149565b5f90505b92915050565b5f60055f8481526020019081526020015f205f015f8373ffffffffffffffffffffffffffffffffffffffff1673ffffffffffffffffffffffffffffffffffffffff1681526020019081526020015f205f9054906101000a900460ff16905092915050565b5f33905090565b610d35806101c75f395ff3fe608060405234801561000f575f5ffd5b50600436106100cd575f3560e01c806374b7b6391161008a57806391d148541161006457806391d14854146101fd5780639c26149f1461022d578063a217fddf1461024b578063d547741f14610269576100cd565b806374b7b639146101a35780637796f5c9146101c15780638dc436b6146101df576100cd565b806301ffc9a7146100d1578063248a9ca3146101015780632f2ff15d1461013157806336568abe1461014d57806349ec99ee146101695780637116e72514610187575b5f5ffd5b6100eb60048036038101906100e691906109dd565b610285565b6040516100f89190610a22565b60405180910390f35b61011b60048036038101906101169190610a6e565b6102fe565b6040516101289190610aa8565b60405180910390f35b61014b60048036038101906101469190610b1b565b61031b565b005b61016760048036038101906101629190610b1b565b61033d565b005b6101716103b8565b60405161017e9190610aa8565b60405180910390f35b6101a1600480360381019061019c9190610bd7565b6103dc565b005b6101ab6105bf565b6040516101b89190610aa8565b60405180910390f35b6101c96105e3565b6040516101d69190610aa8565b60405180910390f35b6101e7610607565b6040516101f49190610aa8565b60405180910390f35b61021760048036038101906102129190610b1b565b61062b565b6040516102249190610a22565b60405180910390f35b61023561068f565b6040516102429190610aa8565b60405180910390f35b6102536106b3565b6040516102609190610aa8565b60405180910390f35b610283600480360381019061027e9190610b1b565b6106b9565b005b5f7f7965db0b000000000000000000000000000000000000000000000000000000007bffffffffffffffffffffffffffffffffffffffffffffffffffffffff1916827bffffffffffffffffffffffffffffffffffffffffffffffffffffffff191614806102f757506102f6826106db565b5b9050919050565b5f60055f8381526020019081526020015f20600101549050919050565b610324826102fe565b61032d81610744565b6103378383610758565b50505050565b610345610842565b73ffffffffffffffffffffffffffffffffffffffff168173ffffffffffffffffffffffffffffffffffffffff16146103a9576040517f6697b23200000000000000000000000000000000000000000000000000000000815260040160405180910390fd5b6103b38282610849565b505050565b7f6659d833875b88922d2576dad6c137a09ba676496bb2010bf8a72397792167a081565b7f6d960d3aada907633a701143a0c8a0657b9ed1e77b6d2d8b56e5d8813982e10c61040681610744565b5f60025f8667ffffffffffffffff1667ffffffffffffffff1681526020019081526020015f2090503373ffffffffffffffffffffffffffffffffffffffff16816001015f9054906101000a900473ffffffffffffffffffffffffffffffffffffffff1673ffffffffffffffffffffffffffffffffffffffff16146104b6576040517f30cd747100000000000000000000000000000000000000000000000000000000815260040160405180910390fd5b826bffffffffffffffffffffffff16815f01600c9054906101000a90046bffffffffffffffffffffffff166bffffffffffffffffffffffff161015610527576040517f1dc930eb00000000000000000000000000000000000000000000000000000000815260040160405180910390fd5b82815f01600c8282829054906101000a90046bffffffffffffffffffffffff166105519190610c54565b92506101000a8154816bffffffffffffffffffffffff02191690836bffffffffffffffffffffffff1602179055507f4b8c89867ab5c47fb91b9368b43cd95ba93c1e989a4e484c414b1f3433e5f9a085856040516105b0929190610cb1565b60405180910390a15050505050565b7f6d960d3aada907633a701143a0c8a0657b9ed1e77b6d2d8b56e5d8813982e10c81565b7f9d536f5f629a80fe6940f79b96b33c48ff97a31d5e6a548587bc178ef34b0ae481565b7f3c801090d1d22d8d8fe9837ef6d8ab50dfdff14e17d0039e333d4d7138ed50b381565b5f60055f8481526020019081526020015f205f015f8373ffffffffffffffffffffffffffffffffffffffff1673ffffffffffffffffffffffffffffffffffffffff1681526020019081526020015f205f9054906101000a900460ff16905092915050565b7f85faced7bde13e1a7dad704b895f006e704f207617d68166b31ba2d79624862d81565b5f5f1b81565b6106c2826102fe565b6106cb81610744565b6106d58383610849565b50505050565b5f7f01ffc9a7000000000000000000000000000000000000000000000000000000007bffffffffffffffffffffffffffffffffffffffffffffffffffffffff1916827bffffffffffffffffffffffffffffffffffffffffffffffffffffffff1916149050919050565b61075581610750610842565b610933565b50565b5f610763838361062b565b61083857600160055f8581526020019081526020015f205f015f8473ffffffffffffffffffffffffffffffffffffffff1673ffffffffffffffffffffffffffffffffffffffff1681526020019081526020015f205f6101000a81548160ff0219169083151502179055506107d5610842565b73ffffffffffffffffffffffffffffffffffffffff168273ffffffffffffffffffffffffffffffffffffffff16847f2f8788117e7eff1d82e926ec794901d17c78024a50270940304540a733656f0d60405160405180910390a46001905061083c565b5f90505b92915050565b5f33905090565b5f610854838361062b565b15610929575f60055f8581526020019081526020015f205f015f8473ffffffffffffffffffffffffffffffffffffffff1673ffffffffffffffffffffffffffffffffffffffff1681526020019081526020015f205f6101000a81548160ff0219169083151502179055506108c6610842565b73ffffffffffffffffffffffffffffffffffffffff168273ffffffffffffffffffffffffffffffffffffffff16847ff6391f5c32d9c69d2a47ea670b442974b53935d1edc7fd64eb21e047a839171b60405160405180910390a46001905061092d565b5f90505b92915050565b61093d828261062b565b6109805780826040517fe2517d3f000000000000000000000000000000000000000000000000000000008152600401610977929190610cd8565b60405180910390fd5b5050565b5f5ffd5b5f7fffffffff0000000000000000000000000000000000000000000000000000000082169050919050565b6109bc81610988565b81146109c6575f5ffd5b50565b5f813590506109d7816109b3565b92915050565b5f602082840312156109f2576109f1610984565b5b5f6109ff848285016109c9565b91505092915050565b5f8115159050919050565b610a1c81610a08565b82525050565b5f602082019050610a355f830184610a13565b92915050565b5f819050919050565b610a4d81610a3b565b8114610a57575f5ffd5b50565b5f81359050610a6881610a44565b92915050565b5f60208284031215610a8357610a82610984565b5b5f610a9084828501610a5a565b91505092915050565b610aa281610a3b565b82525050565b5f602082019050610abb5f830184610a99565b92915050565b5f73ffffffffffffffffffffffffffffffffffffffff82169050919050565b5f610aea82610ac1565b9050919050565b610afa81610ae0565b8114610b04575f5ffd5b50565b5f81359050610b1581610af1565b92915050565b5f5f60408385031215610b3157610b30610984565b5b5f610b3e85828601610a5a565b9250506020610b4f85828601610b07565b9150509250929050565b5f67ffffffffffffffff82169050919050565b610b7581610b59565b8114610b7f575f5ffd5b50565b5f81359050610b9081610b6c565b92915050565b5f6bffffffffffffffffffffffff82169050919050565b610bb681610b96565b8114610bc0575f5ffd5b50565b5f81359050610bd181610bad565b92915050565b5f5f5f60608486031215610bee57610bed610984565b5b5f610bfb86828701610b82565b9350506020610c0c86828701610b07565b9250506040610c1d86828701610bc3565b9150509250925092565b7f4e487b71000000000000000000000000000000000000000000000000000000005f52601160045260245ffd5b5f610c5e82610b96565b9150610c6983610b96565b925082820390506bffffffffffffffffffffffff811115610c8d57610c8c610c27565b5b92915050565b610c9c81610b59565b82525050565b610cab81610ae0565b82525050565b5f604082019050610cc45f830185610c93565b610cd16020830184610ca2565b9392505050565b5f604082019050610ceb5f830185610ca2565b610cf86020830184610a99565b939250505056fea2646970667358221220f9c4874ad9febd19f15859e7eca89a51822233f9d7d4c36b316cf70dfc01157f64736f6c63430008210033","linkReferences":{}},"methodIdentifiers":{"DEFAULT_ADMIN_ROLE()":"a217fddf","DISTRIBUTOR()":"9c26149f","MANUFACTURER()":"49ec99ee","PHARMACY()":"74b7b639","REGULATOR()":"8dc436b6","WHOLESALER()":"7796f5c9","getRoleAdmin(bytes32)":"248a9ca3","grantRole(bytes32,address)":"2f2ff15d","hasRole(bytes32,address)":"91d14854","renounceRole(bytes32,address)":"36568abe","revokeRole(bytes32,address)":"d547741f","sell(uint64,address,uint96)":"7116e725","supportsInterface(bytes4)":"01ffc9a7"},"id":22}