{"abi":[{"type":"constructor","inputs":[],"stateMutability":"nonpayable"},{"type":"function","name":"DEFAULT_ADMIN_ROLE","inputs":[],"outputs":[{"name":"","type":"bytes32","internalType":"bytes32"}],"stateMutability":"view"},{"type":"function","name":"DISTRIBUTOR","inputs":[],"outputs":[{"name":"","type":"bytes32","internalType":"bytes32"}],"stateMutability":"view"},{"type":"function","name":"MANUFACTURER","inputs":[],"outputs":[{"name":"","type":"bytes32","internalType":"bytes32"}],"stateMutability":"view"},{"type":"function","name":"PHARMACY","inputs":[],"outputs":[{"name":"","type":"bytes32","internalType":"bytes32"}],"stateMutability":"view"},{"type":"function","name":"REGULATOR","inputs":[],"outputs":[{"name":"","type":"bytes32","internalType":"bytes32"}],"stateMutability":"view"},{"type":"function","name":"WHOLESALER","inputs":[],"outputs":[{"name":"","type":"bytes32","internalType":"bytes32"}],"stateMutability":"view"},{"type":"function","name":"getRoleAdmin","inputs":[{"name":"role","type":"bytes32","internalType":"bytes32"}],"outputs":[{"name":"","type":"bytes32","internalType":"bytes32"}],"stateMutability":"view"},{"type":"function","name":"grantRole","inputs":[{"name":"role","type":"bytes32","internalType":"bytes32"},{"name":"account","type":"address","internalType":"address"}],"outputs":[],"stateMutability":"nonpayable"},{"type":"function","name":"hasRole","inputs":[{"name":"role","type":"bytes32","internalType":"bytes32"},{"name":"account","type":"address","internalType":"address"}],"outputs":[{"name":"","type":"bool","internalType":"bool"}],"stateMutability":"view"},{"type":"function","name":"renounceRole","inputs":[{"name":"role","type":"bytes32","internalType":"bytes32"},{"name":"callerConfirmation","type":"address","internalType":"address"}],"outputs":[],"stateMutability":"nonpayable"},{"type":"function","name":"revokeRole","inputs":[{"name":"role","type":"bytes32","internalType":"bytes32"},{"name":"account","type":"address","internalType":"address"}],"outputs":[],"stateMutability":"nonpayable"},{"type":"function","name":"supportsInterface","inputs":[{"name":"interfaceId","type":"bytes4","internalType":"bytes4"}],"outputs":[{"name":"","type":"bool","internalType":"bool"}],"stateMutability":"view"},{"type":"event","name":"RoleAdminChanged","inputs":[{"name":"role","type":"bytes32","indexed":true,"internalType":"bytes32"},{"name":"previousAdminRole","type":"bytes32","indexed":true,"internalType":"bytes32"},{"name":"newAdminRole","type":"bytes32","indexed":true,"internalType":"bytes32"}],"anonymous":false},{"type":"event","name":"RoleGranted","inputs":[{"name":"role","type":"bytes32","indexed":true,"internalType":"bytes32"},{"name":"account","type":"address","indexed":true,"internalType":"address"},{"name":"sender","type":"address","indexed":true,"internalType":"address"}],"anonymous":false},{"type":"event","name":"RoleRevoked","inputs":[{"name":"role","type":"bytes32","indexed":true,"internalType":"bytes32"},{"name":"account","type":"address","indexed":true,"internalType":"address"},{"name":"sender","type":"address","indexed":true,"internalType":"address"}],"anonymous":false},{"type":"error","name":"AccessControlBadConfirmation","inputs":[]},{"type":"error","name":"AccessControlUnauthorizedAccount","inputs":[{"name":"account","type":"address","internalType":"address"},{"name":"neededRole","type":"bytes32","internalType":"bytes32"}]}],"bytecode":{"object":"0x608060405234801561000f575f5ffd5b506100225f5f1b3361005960201b60201c565b506100537f3c801090d1d22d8d8fe9837ef6d8ab50dfdff14e17d0039e333d4d7138ed50b33361005960201b60201c565b506101b8565b5f61006a838361014e60201b60201c565b6101445760015f5f8581526020019081526020015f205f015f8473ffffffffffffffffffffffffffffffffffffffff1673ffffffffffffffffffffffffffffffffffffffff1681526020019081526020015f205f6101000a81548160ff0219169083151502179055506100e16101b160201b60201c565b73ffffffffffffffffffffffffffffffffffffffff168273ffffffffffffffffffffffffffffffffffffffff16847f2f8788117e7eff1d82e926ec794901d17c78024a50270940304540a733656f0d60405160405180910390a460019050610148565b5f90505b92915050565b5f5f5f8481526020019081526020015f205f015f8373ffffffffffffffffffffffffffffffffffffffff1673ffffffffffffffffffffffffffffffffffffffff1681526020019081526020015f205f9054906101000a900460ff16905092915050565b5f33905090565b6109a7806101c55f395ff3fe608060405234801561000f575f5ffd5b50600436106100b2575f3560e01c80637796f5c91161006f5780637796f5c91461018a5780638dc436b6146101a857806391d14854146101c65780639c26149f146101f6578063a217fddf14610214578063d547741f14610232576100b2565b806301ffc9a7146100b6578063248a9ca3146100e65780632f2ff15d1461011657806336568abe1461013257806349ec99ee1461014e57806374b7b6391461016c575b5f5ffd5b6100d060048036038101906100cb91906107bf565b61024e565b6040516100dd9190610804565b60405180910390f35b61010060048036038101906100fb9190610850565b6102c7565b60405161010d919061088a565b60405180910390f35b610130600480360381019061012b91906108fd565b6102e3565b005b61014c600480360381019061014791906108fd565b610305565b005b610156610380565b604051610163919061088a565b60405180910390f35b6101746103a4565b604051610181919061088a565b60405180910390f35b6101926103c8565b60405161019f919061088a565b60405180910390f35b6101b06103ec565b6040516101bd919061088a565b60405180910390f35b6101e060048036038101906101db91906108fd565b610410565b6040516101ed9190610804565b60405180910390f35b6101fe610473565b60405161020b919061088a565b60405180910390f35b61021c610497565b604051610229919061088a565b60405180910390f35b61024c600480360381019061024791906108fd565b61049d565b005b5f7f7965db0b000000000000000000000000000000000000000000000000000000007bffffffffffffffffffffffffffffffffffffffffffffffffffffffff1916827bffffffffffffffffffffffffffffffffffffffffffffffffffffffff191614806102c057506102bf826104bf565b5b9050919050565b5f5f5f8381526020019081526020015f20600101549050919050565b6102ec826102c7565b6102f581610528565b6102ff838361053c565b50505050565b61030d610625565b73ffffffffffffffffffffffffffffffffffffffff168173ffffffffffffffffffffffffffffffffffffffff1614610371576040517f6697b23200000000000000000000000000000000000000000000000000000000815260040160405180910390fd5b61037b828261062c565b505050565b7f6659d833875b88922d2576dad6c137a09ba676496bb2010bf8a72397792167a081565b7f6d960d3aada907633a701143a0c8a0657b9ed1e77b6d2d8b56e5d8813982e10c81565b7f9d536f5f629a80fe6940f79b96b33c48ff97a31d5e6a548587bc178ef34b0ae481565b7f3c801090d1d22d8d8fe9837ef6d8ab50dfdff14e17d0039e333d4d7138ed50b381565b5f5f5f8481526020019081526020015f205f015f8373ffffffffffffffffffffffffffffffffffffffff1673ffffffffffffffffffffffffffffffffffffffff1681526020019081526020015f205f9054906101000a900460ff16905092915050565b7f85faced7bde13e1a7dad704b895f006e704f207617d68166b31ba2d79624862d81565b5f5f1b81565b6104a6826102c7565b6104af81610528565b6104b9838361062c565b50505050565b5f7f01ffc9a7000000000000000000000000000000000000000000000000000000007bffffffffffffffffffffffffffffffffffffffffffffffffffffffff1916827bffffffffffffffffffffffffffffffffffffffffffffffffffffffff1916149050919050565b61053981610534610625565b610715565b50565b5f6105478383610410565b61061b5760015f5f8581526020019081526020015f205f015f8473ffffffffffffffffffffffffffffffffffffffff1673ffffffffffffffffffffffffffffffffffffffff1681526020019081526020015f205f6101000a81548160ff0219169083151502179055506105b8610625565b73ffffffffffffffffffffffffffffffffffffffff168273ffffffffffffffffffffffffffffffffffffffff16847f2f8788117e7eff1d82e926ec794901d17c78024a50270940304540a733656f0d60405160405180910390a46001905061061f565b5f90505b92915050565b5f33905090565b5f6106378383610410565b1561070b575f5f5f8581526020019081526020015f205f015f8473ffffffffffffffffffffffffffffffffffffffff1673ffffffffffffffffffffffffffffffffffffffff1681526020019081526020015f205f6101000a81548160ff0219169083151502179055506106a8610625565b73ffffffffffffffffffffffffffffffffffffffff168273ffffffffffffffffffffffffffffffffffffffff16847ff6391f5c32d9c69d2a47ea670b442974b53935d1edc7fd64eb21e047a839171b60405160405180910390a46001905061070f565b5f90505b92915050565b61071f8282610410565b6107625780826040517fe2517d3f00000000000000000000000000000000000000000000000000000000815260040161075992919061094a565b60405180910390fd5b5050565b5f5ffd5b5f7fffffffff0000000000000000000000000000000000000000000000000000000082169050919050565b61079e8161076a565b81146107a8575f5ffd5b50565b5f813590506107b981610795565b92915050565b5f602082840312156107d4576107d3610766565b5b5f6107e1848285016107ab565b91505092915050565b5f8115159050919050565b6107fe816107ea565b82525050565b5f6020820190506108175f8301846107f5565b92915050565b5f819050919050565b61082f8161081d565b8114610839575f5ffd5b50565b5f8135905061084a81610826565b92915050565b5f6020828403121561086557610864610766565b5b5f6108728482850161083c565b91505092915050565b6108848161081d565b82525050565b5f60208201905061089d5f83018461087b565b92915050565b5f73ffffffffffffffffffffffffffffffffffffffff82169050919050565b5f6108cc826108a3565b9050919050565b6108dc816108c2565b81146108e6575f5ffd5b50565b5f813590506108f7816108d3565b92915050565b5f5f6040838503121561091357610912610766565b5b5f6109208582860161083c565b9250506020610931858286016108e9565b9150509250929050565b610944816108c2565b82525050565b5f60408201905061095d5f83018561093b565b61096a602083018461087b565b939250505056fea26469706673582212206a52f6c7427638532b819081e1712032f723ec8b7b4cb871dbece662a5b1f53264736f6c63430008210033","linkReferences":{}},"methodIdentifiers":{"DEFAULT_ADMIN_ROLE()":"a217fddf","DISTRIBUTOR()":"9c26149f","MANUFACTURER()":"49ec99ee","PHARMACY()":"74b7b639","REGULATOR()":"8dc436b6","WHOLESALER()":"7796f5c9","getRoleAdmin(bytes32)":"248a9ca3","grantRole(bytes32,address)":"2f2ff15d","hasRole(bytes32,address)":"91d14854","renounceRole(bytes32,address)":"36568abe","revokeRole(bytes32,address)":"d547741f","supportsInterface(bytes4)":"01ffc9a7"},"id":25}